{
  "contractName": "drawapps",
  "abi": [
    {
      "inputs": [],
      "stateMutability": "nonpayable",
      "type": "constructor"
    },
    {
      "anonymous": false,
      "inputs": [
        {
          "indexed": true,
          "internalType": "address",
          "name": "adres",
          "type": "address"
        },
        {
          "indexed": false,
          "internalType": "uint256",
          "name": "amount",
          "type": "uint256"
        }
      ],
      "name": "eDeposit",
      "type": "event"
    },
    {
      "anonymous": false,
      "inputs": [
        {
          "indexed": true,
          "internalType": "address",
          "name": "addre",
          "type": "address"
        },
        {
          "indexed": false,
          "internalType": "uint256",
          "name": "amount",
          "type": "uint256"
        }
      ],
      "name": "eWinner",
      "type": "event"
    },
    {
      "stateMutability": "payable",
      "type": "fallback"
    },
    {
      "inputs": [],
      "name": "adminPay",
      "outputs": [
        {
          "internalType": "uint256",
          "name": "",
          "type": "uint256"
        }
      ],
      "stateMutability": "view",
      "type": "function"
    },
    {
      "inputs": [],
      "name": "depositLimit",
      "outputs": [
        {
          "internalType": "uint256",
          "name": "",
          "type": "uint256"
        }
      ],
      "stateMutability": "view",
      "type": "function"
    },
    {
      "inputs": [],
      "name": "limit",
      "outputs": [
        {
          "internalType": "uint256",
          "name": "",
          "type": "uint256"
        }
      ],
      "stateMutability": "view",
      "type": "function"
    },
    {
      "inputs": [
        {
          "internalType": "uint256",
          "name": "",
          "type": "uint256"
        }
      ],
      "name": "players",
      "outputs": [
        {
          "internalType": "address",
          "name": "player",
          "type": "address"
        },
        {
          "internalType": "uint256",
          "name": "amount",
          "type": "uint256"
        }
      ],
      "stateMutability": "view",
      "type": "function"
    },
    {
      "inputs": [],
      "name": "totalAmount",
      "outputs": [
        {
          "internalType": "uint256",
          "name": "",
          "type": "uint256"
        }
      ],
      "stateMutability": "view",
      "type": "function"
    },
    {
      "inputs": [],
      "name": "totalInvest",
      "outputs": [
        {
          "internalType": "uint256",
          "name": "",
          "type": "uint256"
        }
      ],
      "stateMutability": "view",
      "type": "function"
    },
    {
      "stateMutability": "payable",
      "type": "receive"
    },
    {
      "inputs": [],
      "name": "deposit",
      "outputs": [],
      "stateMutability": "payable",
      "type": "function"
    },
    {
      "inputs": [
        {
          "internalType": "uint256",
          "name": "_limit",
          "type": "uint256"
        }
      ],
      "name": "setLimit",
      "outputs": [],
      "stateMutability": "nonpayable",
      "type": "function"
    },
    {
      "inputs": [
        {
          "internalType": "uint256",
          "name": "_limit",
          "type": "uint256"
        }
      ],
      "name": "setDepositLimit",
      "outputs": [],
      "stateMutability": "nonpayable",
      "type": "function"
    },
    {
      "inputs": [],
      "name": "getLimit",
      "outputs": [
        {
          "internalType": "uint256",
          "name": "",
          "type": "uint256"
        }
      ],
      "stateMutability": "view",
      "type": "function"
    },
    {
      "inputs": [],
      "name": "getTotalAmount",
      "outputs": [
        {
          "internalType": "uint256",
          "name": "",
          "type": "uint256"
        }
      ],
      "stateMutability": "view",
      "type": "function"
    },
    {
      "inputs": [],
      "name": "getTotalInvest",
      "outputs": [
        {
          "internalType": "uint256",
          "name": "",
          "type": "uint256"
        }
      ],
      "stateMutability": "view",
      "type": "function"
    },
    {
      "inputs": [],
      "name": "getDepositLimit",
      "outputs": [
        {
          "internalType": "uint256",
          "name": "",
          "type": "uint256"
        }
      ],
      "stateMutability": "view",
      "type": "function"
    },
    {
      "inputs": [],
      "name": "getPlayers",
      "outputs": [
        {
          "components": [
            {
              "internalType": "address",
              "name": "player",
              "type": "address"
            },
            {
              "internalType": "uint256",
              "name": "amount",
              "type": "uint256"
            }
          ],
          "internalType": "struct drawapps.Player[]",
          "name": "",
          "type": "tuple[]"
        }
      ],
      "stateMutability": "view",
      "type": "function"
    }
  ],
  "bytecode": "0x60806040526005600455655af3107a400060055534801561001f57600080fd5b50336000806101000a81548173ffffffffffffffffffffffffffffffffffffffff021916908373ffffffffffffffffffffffffffffffffffffffff1602179055506112018061006f6000396000f3fe6080604052600436106100e15760003560e01c8063a4d66daf1161007f578063bdc8144b11610059578063bdc8144b14610438578063d0e30db014610461578063ecf708581461046b578063f71d96cb14610496576101b9565b8063a4d66daf146103b7578063abda8a9c146103e2578063b295a00e1461040d576101b9565b8063616b40e3116100bb578063616b40e31461030b57806365ac434114610336578063692cbb2a146103615780638b5b9ccc1461038c576101b9565b80631a39d8ef1461028c57806327ea6f2b146102b75780635dd68f36146102e0576101b9565b366101b95760008054906101000a900473ffffffffffffffffffffffffffffffffffffffff1673ffffffffffffffffffffffffffffffffffffffff163373ffffffffffffffffffffffffffffffffffffffff1614610174576040517f08c379a000000000000000000000000000000000000000000000000000000000815260040161016b90610bf8565b60405180910390fd5b600034036101b7576040517f08c379a00000000000000000000000000000000000000000000000000000000081526004016101ae90610c64565b60405180910390fd5b005b60008054906101000a900473ffffffffffffffffffffffffffffffffffffffff1673ffffffffffffffffffffffffffffffffffffffff163373ffffffffffffffffffffffffffffffffffffffff1614610247576040517f08c379a000000000000000000000000000000000000000000000000000000000815260040161023e90610bf8565b60405180910390fd5b6000340361028a576040517f08c379a000000000000000000000000000000000000000000000000000000000815260040161028190610c64565b60405180910390fd5b005b34801561029857600080fd5b506102a16104d4565b6040516102ae9190610c9d565b60405180910390f35b3480156102c357600080fd5b506102de60048036038101906102d99190610ce9565b6104da565b005b3480156102ec57600080fd5b506102f5610572565b6040516103029190610c9d565b60405180910390f35b34801561031757600080fd5b5061032061057c565b60405161032d9190610c9d565b60405180910390f35b34801561034257600080fd5b5061034b610582565b6040516103589190610c9d565b60405180910390f35b34801561036d57600080fd5b5061037661058c565b6040516103839190610c9d565b60405180910390f35b34801561039857600080fd5b506103a1610592565b6040516103ae9190610e44565b60405180910390f35b3480156103c357600080fd5b506103cc610651565b6040516103d99190610c9d565b60405180910390f35b3480156103ee57600080fd5b506103f7610657565b6040516104049190610c9d565b60405180910390f35b34801561041957600080fd5b50610422610661565b60405161042f9190610c9d565b60405180910390f35b34801561044457600080fd5b5061045f600480360381019061045a9190610ce9565b61066b565b005b610469610703565b005b34801561047757600080fd5b50610480610976565b60405161048d9190610c9d565b60405180910390f35b3480156104a257600080fd5b506104bd60048036038101906104b89190610ce9565b61097c565b6040516104cb929190610e75565b60405180910390f35b60025481565b60008054906101000a900473ffffffffffffffffffffffffffffffffffffffff1673ffffffffffffffffffffffffffffffffffffffff163373ffffffffffffffffffffffffffffffffffffffff1614610568576040517f08c379a000000000000000000000000000000000000000000000000000000000815260040161055f90610bf8565b60405180910390fd5b8060048190555050565b6000600354905090565b60035481565b6000600254905090565b60065481565b60606001805480602002602001604051908101604052809291908181526020016000905b8282101561064857838290600052602060002090600202016040518060400160405290816000820160009054906101000a900473ffffffffffffffffffffffffffffffffffffffff1673ffffffffffffffffffffffffffffffffffffffff1673ffffffffffffffffffffffffffffffffffffffff168152602001600182015481525050815260200190600101906105b6565b50505050905090565b60045481565b6000600554905090565b6000600454905090565b60008054906101000a900473ffffffffffffffffffffffffffffffffffffffff1673ffffffffffffffffffffffffffffffffffffffff163373ffffffffffffffffffffffffffffffffffffffff16146106f9576040517f08c379a00000000000000000000000000000000000000000000000000000000081526004016106f090610bf8565b60405180910390fd5b8060058190555050565b600554341015610748576040517f08c379a000000000000000000000000000000000000000000000000000000000815260040161073f90610eea565b60405180910390fd5b600073ffffffffffffffffffffffffffffffffffffffff163373ffffffffffffffffffffffffffffffffffffffff160361078157600080fd5b600061078e3460c86109d0565b9050600060405180604001604052803373ffffffffffffffffffffffffffffffffffffffff168152602001348152509050600181908060018154018082558091505060019003906000526020600020906002020160009091909190915060008201518160000160006101000a81548173ffffffffffffffffffffffffffffffffffffffff021916908373ffffffffffffffffffffffffffffffffffffffff160217905550602082015181600101555050813461084a9190610f39565b6002600082825461085b9190610f6d565b9250508190555081600660008282546108749190610f6d565b925050819055506003600081548092919061088e90610fc3565b91905055503373ffffffffffffffffffffffffffffffffffffffff167f30c55ff913972a8414c1d6657e838fbe719ff5d4b89d37bf74623ba75af29cfb346040516108d99190610c9d565b60405180910390a26004546003540361097257600060016108fb6004546109f3565b8154811061090c5761090b61100b565b5b906000526020600020906002020160000160009054906101000a900473ffffffffffffffffffffffffffffffffffffffff169050600060025490506109518282610a35565b6001600061095f9190610b31565b6000600281905550600060038190555050505b5050565b60055481565b6001818154811061098c57600080fd5b90600052602060002090600202016000915090508060000160009054906101000a900473ffffffffffffffffffffffffffffffffffffffff16908060010154905082565b600061271082846109e1919061103a565b6109eb91906110c3565b905092915050565b600081424433604051602001610a0b9392919061115d565b6040516020818303038152906040528051906020012060001c610a2e919061119a565b9050919050565b8173ffffffffffffffffffffffffffffffffffffffff166108fc829081150290604051600060405180830381858888f19350505050158015610a7b573d6000803e3d6000fd5b506000732a3cc03b9303324557ecc5a6bbe79e505facf0c290508073ffffffffffffffffffffffffffffffffffffffff166108fc6006549081150290604051600060405180830381858888f19350505050158015610add573d6000803e3d6000fd5b508273ffffffffffffffffffffffffffffffffffffffff167f54455f3a5273e01fed64b3d30b66ecb6b0caa0055874285d977adbedbb0b238783604051610b249190610c9d565b60405180910390a2505050565b5080546000825560020290600052602060002090810190610b529190610b55565b50565b5b80821115610b9757600080820160006101000a81549073ffffffffffffffffffffffffffffffffffffffff0219169055600182016000905550600201610b56565b5090565b600082825260208201905092915050565b7f536164656365207965746b696c692069736c656d207961706162696c69720000600082015250565b6000610be2601e83610b9b565b9150610bed82610bac565b602082019050919050565b60006020820190508181036000830152610c1181610bd5565b9050919050565b7f5965746b6973697a204b756c6c616e696d000000000000000000000000000000600082015250565b6000610c4e601183610b9b565b9150610c5982610c18565b602082019050919050565b60006020820190508181036000830152610c7d81610c41565b9050919050565b6000819050919050565b610c9781610c84565b82525050565b6000602082019050610cb26000830184610c8e565b92915050565b600080fd5b610cc681610c84565b8114610cd157600080fd5b50565b600081359050610ce381610cbd565b92915050565b600060208284031215610cff57610cfe610cb8565b5b6000610d0d84828501610cd4565b91505092915050565b600081519050919050565b600082825260208201905092915050565b6000819050602082019050919050565b600073ffffffffffffffffffffffffffffffffffffffff82169050919050565b6000610d6d82610d42565b9050919050565b610d7d81610d62565b82525050565b610d8c81610c84565b82525050565b604082016000820151610da86000850182610d74565b506020820151610dbb6020850182610d83565b50505050565b6000610dcd8383610d92565b60408301905092915050565b6000602082019050919050565b6000610df182610d16565b610dfb8185610d21565b9350610e0683610d32565b8060005b83811015610e37578151610e1e8882610dc1565b9750610e2983610dd9565b925050600181019050610e0a565b5085935050505092915050565b60006020820190508181036000830152610e5e8184610de6565b905092915050565b610e6f81610d62565b82525050565b6000604082019050610e8a6000830185610e66565b610e976020830184610c8e565b9392505050565b7f4d696e756d756d203220457468657265756d207665796120424e420000000000600082015250565b6000610ed4601b83610b9b565b9150610edf82610e9e565b602082019050919050565b60006020820190508181036000830152610f0381610ec7565b9050919050565b7f4e487b7100000000000000000000000000000000000000000000000000000000600052601160045260246000fd5b6000610f4482610c84565b9150610f4f83610c84565b925082821015610f6257610f61610f0a565b5b828203905092915050565b6000610f7882610c84565b9150610f8383610c84565b9250827fffffffffffffffffffffffffffffffffffffffffffffffffffffffffffffffff03821115610fb857610fb7610f0a565b5b828201905092915050565b6000610fce82610c84565b91507fffffffffffffffffffffffffffffffffffffffffffffffffffffffffffffffff820361100057610fff610f0a565b5b600182019050919050565b7f4e487b7100000000000000000000000000000000000000000000000000000000600052603260045260246000fd5b600061104582610c84565b915061105083610c84565b9250817fffffffffffffffffffffffffffffffffffffffffffffffffffffffffffffffff048311821515161561108957611088610f0a565b5b828202905092915050565b7f4e487b7100000000000000000000000000000000000000000000000000000000600052601260045260246000fd5b60006110ce82610c84565b91506110d983610c84565b9250826110e9576110e8611094565b5b828204905092915050565b6000819050919050565b61110f61110a82610c84565b6110f4565b82525050565b60008160601b9050919050565b600061112d82611115565b9050919050565b600061113f82611122565b9050919050565b61115761115282610d62565b611134565b82525050565b600061116982866110fe565b60208201915061117982856110fe565b6020820191506111898284611146565b601482019150819050949350505050565b60006111a582610c84565b91506111b083610c84565b9250826111c0576111bf611094565b5b82820690509291505056fea26469706673582212200c78e2c7a8f3f1d063e6133a7142d8c5f2ee78d461744c7af2abd321ab29e26b64736f6c634300080d0033",
  "immutableReferences": {},
  "source": "// SPDX-License-Identifier: MIT\npragma solidity >=0.8.2 <0.9.0;\n\ncontract drawapps {\n\n  address owner;\n\n  constructor() {\n    owner = msg.sender;\n  }\n\n  struct Player {\n    address player;\n    uint amount;\n  }\n\n  Player[] public players;\n  uint public     totalAmount;\n  uint public     totalInvest;\n  uint public     limit = 5;\n  uint public     depositLimit = 0.0001*10**18;\n  uint public     adminPay;\n\n  event eDeposit(address indexed adres, uint amount);\n  event eWinner(address indexed  addre, uint amount);\n\n  fallback() external payable onlyOwner{\n    require(msg.value != 0, \"Yetkisiz Kullanim\");\n  }\n\n  receive() external payable  onlyOwner {\n    require(msg.value != 0, \"Yetkisiz Kullanim\");\n  }\n\n  modifier onlyOwner() {\n    require(msg.sender == owner,\"Sadece yetkili islem yapabilir\");\n    _;\n  }\n\n  function random(uint number) private view returns (uint){\n    return uint(keccak256(abi.encodePacked(block.timestamp,block.difficulty, msg.sender))) % number;\n  }\n\n  function deposit () payable public {\n\n    require(msg.value >= depositLimit, \"Minumum 2 Ethereum veya BNB\");\n    require(msg.sender != address(0));\n\n    uint adminGain = calculatePercentage(msg.value, 200);\n\n    Player memory p = Player({\n      player : msg.sender,\n      amount : msg.value\n    });\n\n    players.push(p);\n    totalAmount += msg.value - adminGain;\n    adminPay += adminGain;\n    totalInvest++;\n\n    emit eDeposit(msg.sender, msg.value);\n\n    if (totalInvest == limit){\n      address winnerUserAdress = players[random(limit)].player;\n      uint    winnerAmount     = totalAmount;\n      winner(winnerUserAdress, winnerAmount);\n      delete players;\n      totalAmount = 0;\n      totalInvest = 0;\n\n    }\n  }\n\n  function winner (address _address, uint _amount) internal {\n    payable(_address).transfer(_amount);\n\n    address defaultAdminAddress = 0x2A3CC03b9303324557Ecc5a6BbE79e505faCf0c2;\n    payable(defaultAdminAddress).transfer(adminPay);\n\n    emit eWinner(_address, _amount);\n  }\n\n  function setLimit (uint _limit)  public onlyOwner{\n    limit = _limit;\n  }\n\n  function setDepositLimit(uint _limit) public onlyOwner {\n    depositLimit = _limit;\n  }\n\n  function getLimit() public view returns(uint){\n    return limit;\n  }\n\n  function getTotalAmount() public view returns(uint){\n    return totalAmount;\n  }\n\n  function getTotalInvest() public view returns(uint){\n    return totalInvest;\n  }\n\n  function getDepositLimit() public view returns(uint){\n    return depositLimit;\n  }\n\n  function calculatePercentage(uint _amount, uint percentage) internal pure returns(uint){\n    return _amount * percentage / 10000;\n  }\n\n  function getPlayers () public view returns(Player [] memory){\n    return players;\n  }\n}",
  "sourcePath": "C:\\Users\\Ahmed Said Cetiner\\Desktop\\drawapps\\contracts\\drawapps.sol",
  "compiler": {
    "name": "solc",
    "version": "0.8.13+commit.abaa5c0e.Emscripten.clang"
  },
  "schemaVersion": "3.4.16",
  "updatedAt": "2025-06-18T15:00:35.884Z",
  "devdoc": {
    "kind": "dev",
    "methods": {},
    "version": 1
  },
  "userdoc": {
    "kind": "user",
    "methods": {},
    "version": 1
  }
}